{
  "contractName": "UNSToken",
  "abi": [
    {
      "constant": false,
      "inputs": [],
      "name": "emergencyToggle",
      "outputs": [],
      "payable": false,
      "stateMutability": "nonpayable",
      "type": "function"
    },
    {
      "constant": true,
      "inputs": [],
      "name": "name",
      "outputs": [
        {
          "name": "",
          "type": "string"
        }
      ],
      "payable": false,
      "stateMutability": "view",
      "type": "function"
    },
    {
      "constant": false,
      "inputs": [
        {
          "name": "_spender",
          "type": "address"
        },
        {
          "name": "_value",
          "type": "uint256"
        }
      ],
      "name": "approve",
      "outputs": [
        {
          "name": "success",
          "type": "bool"
        }
      ],
      "payable": false,
      "stateMutability": "nonpayable",
      "type": "function"
    },
    {
      "constant": true,
      "inputs": [],
      "name": "totalSupply",
      "outputs": [
        {
          "name": "",
          "type": "uint256"
        }
      ],
      "payable": false,
      "stateMutability": "view",
      "type": "function"
    },
    {
      "constant": true,
      "inputs": [],
      "name": "tokenPreSaleRate",
      "outputs": [
        {
          "name": "",
          "type": "uint256"
        }
      ],
      "payable": false,
      "stateMutability": "view",
      "type": "function"
    },
    {
      "constant": false,
      "inputs": [
        {
          "name": "_from",
          "type": "address"
        },
        {
          "name": "_to",
          "type": "address"
        },
        {
          "name": "_value",
          "type": "uint256"
        }
      ],
      "name": "transferFrom",
      "outputs": [
        {
          "name": "success",
          "type": "bool"
        }
      ],
      "payable": false,
      "stateMutability": "nonpayable",
      "type": "function"
    },
    {
      "constant": true,
      "inputs": [],
      "name": "decimals",
      "outputs": [
        {
          "name": "",
          "type": "uint256"
        }
      ],
      "payable": false,
      "stateMutability": "view",
      "type": "function"
    },
    {
      "constant": true,
      "inputs": [],
      "name": "tokenCreationPreSaleCap",
      "outputs": [
        {
          "name": "",
          "type": "uint256"
        }
      ],
      "payable": false,
      "stateMutability": "view",
      "type": "function"
    },
    {
      "constant": false,
      "inputs": [
        {
          "name": "_to",
          "type": "address"
        },
        {
          "name": "_amount",
          "type": "uint256"
        }
      ],
      "name": "mint",
      "outputs": [
        {
          "name": "",
          "type": "bool"
        }
      ],
      "payable": false,
      "stateMutability": "nonpayable",
      "type": "function"
    },
    {
      "constant": true,
      "inputs": [],
      "name": "preSaleBlockNumber",
      "outputs": [
        {
          "name": "",
          "type": "uint256"
        }
      ],
      "payable": false,
      "stateMutability": "view",
      "type": "function"
    },
    {
      "constant": true,
      "inputs": [],
      "name": "version",
      "outputs": [
        {
          "name": "",
          "type": "string"
        }
      ],
      "payable": false,
      "stateMutability": "view",
      "type": "function"
    },
    {
      "constant": true,
      "inputs": [],
      "name": "tokenCreationCap",
      "outputs": [
        {
          "name": "",
          "type": "uint256"
        }
      ],
      "payable": false,
      "stateMutability": "view",
      "type": "function"
    },
    {
      "constant": true,
      "inputs": [],
      "name": "finalBlockNumber",
      "outputs": [
        {
          "name": "",
          "type": "uint256"
        }
      ],
      "payable": false,
      "stateMutability": "view",
      "type": "function"
    },
    {
      "constant": true,
      "inputs": [
        {
          "name": "_owner",
          "type": "address"
        }
      ],
      "name": "balanceOf",
      "outputs": [
        {
          "name": "balance",
          "type": "uint256"
        }
      ],
      "payable": false,
      "stateMutability": "view",
      "type": "function"
    },
    {
      "constant": false,
      "inputs": [
        {
          "name": "_newBlock",
          "type": "uint256"
        }
      ],
      "name": "changeEndBlock",
      "outputs": [
        {
          "name": "_endblock",
          "type": "uint256"
        }
      ],
      "payable": false,
      "stateMutability": "nonpayable",
      "type": "function"
    },
    {
      "constant": true,
      "inputs": [],
      "name": "owner",
      "outputs": [
        {
          "name": "",
          "type": "address"
        }
      ],
      "payable": false,
      "stateMutability": "view",
      "type": "function"
    },
    {
      "constant": true,
      "inputs": [],
      "name": "fundingEndBlock",
      "outputs": [
        {
          "name": "",
          "type": "uint256"
        }
      ],
      "payable": false,
      "stateMutability": "view",
      "type": "function"
    },
    {
      "constant": true,
      "inputs": [],
      "name": "symbol",
      "outputs": [
        {
          "name": "",
          "type": "string"
        }
      ],
      "payable": false,
      "stateMutability": "view",
      "type": "function"
    },
    {
      "constant": true,
      "inputs": [],
      "name": "minTokenPurchaseAmount",
      "outputs": [
        {
          "name": "",
          "type": "uint256"
        }
      ],
      "payable": false,
      "stateMutability": "view",
      "type": "function"
    },
    {
      "constant": false,
      "inputs": [],
      "name": "drain",
      "outputs": [],
      "payable": false,
      "stateMutability": "nonpayable",
      "type": "function"
    },
    {
      "constant": false,
      "inputs": [],
      "name": "buyToken",
      "outputs": [],
      "payable": true,
      "stateMutability": "payable",
      "type": "function"
    },
    {
      "constant": true,
      "inputs": [],
      "name": "ethFundDeposit",
      "outputs": [
        {
          "name": "",
          "type": "address"
        }
      ],
      "payable": false,
      "stateMutability": "view",
      "type": "function"
    },
    {
      "constant": false,
      "inputs": [
        {
          "name": "_to",
          "type": "address"
        },
        {
          "name": "_value",
          "type": "uint256"
        }
      ],
      "name": "transfer",
      "outputs": [
        {
          "name": "success",
          "type": "bool"
        }
      ],
      "payable": false,
      "stateMutability": "nonpayable",
      "type": "function"
    },
    {
      "constant": true,
      "inputs": [],
      "name": "emergencyFlag",
      "outputs": [
        {
          "name": "",
          "type": "bool"
        }
      ],
      "payable": false,
      "stateMutability": "view",
      "type": "function"
    },
    {
      "constant": true,
      "inputs": [],
      "name": "fundingStartBlock",
      "outputs": [
        {
          "name": "",
          "type": "uint256"
        }
      ],
      "payable": false,
      "stateMutability": "view",
      "type": "function"
    },
    {
      "constant": true,
      "inputs": [
        {
          "name": "_owner",
          "type": "address"
        },
        {
          "name": "_spender",
          "type": "address"
        }
      ],
      "name": "allowance",
      "outputs": [
        {
          "name": "remaining",
          "type": "uint256"
        }
      ],
      "payable": false,
      "stateMutability": "view",
      "type": "function"
    },
    {
      "constant": true,
      "inputs": [],
      "name": "tokenCrowdsaleRate",
      "outputs": [
        {
          "name": "",
          "type": "uint256"
        }
      ],
      "payable": false,
      "stateMutability": "view",
      "type": "function"
    },
    {
      "constant": false,
      "inputs": [
        {
          "name": "newOwner",
          "type": "address"
        }
      ],
      "name": "transferOwnership",
      "outputs": [],
      "payable": false,
      "stateMutability": "nonpayable",
      "type": "function"
    },
    {
      "inputs": [],
      "payable": false,
      "stateMutability": "nonpayable",
      "type": "constructor"
    },
    {
      "payable": true,
      "stateMutability": "payable",
      "type": "fallback"
    },
    {
      "anonymous": false,
      "inputs": [
        {
          "indexed": true,
          "name": "_to",
          "type": "address"
        },
        {
          "indexed": false,
          "name": "_value",
          "type": "uint256"
        }
      ],
      "name": "CreateUNS",
      "type": "event"
    },
    {
      "anonymous": false,
      "inputs": [
        {
          "indexed": true,
          "name": "_to",
          "type": "address"
        },
        {
          "indexed": false,
          "name": "_value",
          "type": "uint256"
        }
      ],
      "name": "Mint",
      "type": "event"
    },
    {
      "anonymous": false,
      "inputs": [
        {
          "indexed": true,
          "name": "_from",
          "type": "address"
        },
        {
          "indexed": true,
          "name": "_to",
          "type": "address"
        },
        {
          "indexed": false,
          "name": "_value",
          "type": "uint256"
        }
      ],
      "name": "Transfer",
      "type": "event"
    },
    {
      "anonymous": false,
      "inputs": [
        {
          "indexed": true,
          "name": "_owner",
          "type": "address"
        },
        {
          "indexed": true,
          "name": "_spender",
          "type": "address"
        },
        {
          "indexed": false,
          "name": "_value",
          "type": "uint256"
        }
      ],
      "name": "Approval",
      "type": "event"
    }
  ],
  "bytecode": "0x60606040526040805190810160405280600381526020017f312e300000000000000000000000000000000000000000000000000000000000815250600490805190602001906200005192919062000124565b50620315da60085534156200006557600080fd5b33600360006101000a81548173ffffffffffffffffffffffffffffffffffffffff021916908373ffffffffffffffffffffffffffffffffffffffff1602179055506000600560006101000a81548160ff02191690831515021790555043600681905550620000ec600654600854620000f86401000000000262001584176401000000009004565b600781905550620001d3565b6000808284019050838110158015620001115750828110155b15156200011a57fe5b8091505092915050565b828054600181600116156101000203166002900490600052602060002090601f016020900481019282601f106200016757805160ff191683800117855562000198565b8280016001018555821562000198579182015b82811115620001975782518255916020019190600101906200017a565b5b509050620001a79190620001ab565b5090565b620001d091905b80821115620001cc576000816000905550600101620001b2565b5090565b90565b6115da80620001e36000396000f300606060405260043610610169576000357c0100000000000000000000000000000000000000000000000000000000900463ffffffff168062a535981461017357806306fdde0314610188578063095ea7b31461021657806318160ddd146102705780632213c7db1461029957806323b872dd146102c2578063313ce5671461033b57806337d044cd1461036457806340c10f191461038d57806352030899146103e757806354fd4d50146104105780636f7920fd1461049e5780637007adc9146104c757806370a08231146104f0578063822226741461053d5780638da5cb5b1461057457806391b43d13146105c957806395d89b41146105f257806396a942c7146106805780639890220b146106a9578063a4821719146106be578063a81c3bdf146106c8578063a9059cbb1461071d578063b4007cda14610777578063d648a647146107a4578063dd62ed3e146107cd578063dd8d149d14610839578063f2fde38b14610862575b61017161089b565b005b341561017e57600080fd5b6101866109bb565b005b341561019357600080fd5b61019b610a43565b6040518080602001828103825283818151815260200191508051906020019080838360005b838110156101db5780820151818401526020810190506101c0565b50505050905090810190601f1680156102085780820380516001836020036101000a031916815260200191505b509250505060405180910390f35b341561022157600080fd5b610256600480803573ffffffffffffffffffffffffffffffffffffffff16906020019091908035906020019091905050610a7c565b604051808215151515815260200191505060405180910390f35b341561027b57600080fd5b610283610b6e565b6040518082815260200191505060405180910390f35b34156102a457600080fd5b6102ac610b74565b6040518082815260200191505060405180910390f35b34156102cd57600080fd5b610321600480803573ffffffffffffffffffffffffffffffffffffffff1690602001909190803573ffffffffffffffffffffffffffffffffffffffff16906020019091908035906020019091905050610b7a565b604051808215151515815260200191505060405180910390f35b341561034657600080fd5b61034e610df6565b6040518082815260200191505060405180910390f35b341561036f57600080fd5b610377610dfb565b6040518082815260200191505060405180910390f35b341561039857600080fd5b6103cd600480803573ffffffffffffffffffffffffffffffffffffffff16906020019091908035906020019091905050610e08565b604051808215151515815260200191505060405180910390f35b34156103f257600080fd5b6103fa610f50565b6040518082815260200191505060405180910390f35b341561041b57600080fd5b610423610f56565b6040518080602001828103825283818151815260200191508051906020019080838360005b83811015610463578082015181840152602081019050610448565b50505050905090810190601f1680156104905780820380516001836020036101000a031916815260200191505b509250505060405180910390f35b34156104a957600080fd5b6104b1610ff4565b6040518082815260200191505060405180910390f35b34156104d257600080fd5b6104da611002565b6040518082815260200191505060405180910390f35b34156104fb57600080fd5b610527600480803573ffffffffffffffffffffffffffffffffffffffff16906020019091905050611008565b6040518082815260200191505060405180910390f35b341561054857600080fd5b61055e6004808035906020019091905050611051565b6040518082815260200191505060405180910390f35b341561057f57600080fd5b6105876110d0565b604051808273ffffffffffffffffffffffffffffffffffffffff1673ffffffffffffffffffffffffffffffffffffffff16815260200191505060405180910390f35b34156105d457600080fd5b6105dc6110f6565b6040518082815260200191505060405180910390f35b34156105fd57600080fd5b6106056110fc565b6040518080602001828103825283818151815260200191508051906020019080838360005b8381101561064557808201518184015260208101905061062a565b50505050905090810190601f1680156106725780820380516001836020036101000a031916815260200191505b509250505060405180910390f35b341561068b57600080fd5b610693611135565b6040518082815260200191505060405180910390f35b34156106b457600080fd5b6106bc611140565b005b6106c6611209565b005b34156106d357600080fd5b6106db611213565b604051808273ffffffffffffffffffffffffffffffffffffffff1673ffffffffffffffffffffffffffffffffffffffff16815260200191505060405180910390f35b341561072857600080fd5b61075d600480803573ffffffffffffffffffffffffffffffffffffffff1690602001909190803590602001909190505061122b565b604051808215151515815260200191505060405180910390f35b341561078257600080fd5b61078a611394565b604051808215151515815260200191505060405180910390f35b34156107af57600080fd5b6107b76113a7565b6040518082815260200191505060405180910390f35b34156107d857600080fd5b610823600480803573ffffffffffffffffffffffffffffffffffffffff1690602001909190803573ffffffffffffffffffffffffffffffffffffffff169060200190919050506113ad565b6040518082815260200191505060405180910390f35b341561084457600080fd5b61084c611434565b6040518082815260200191505060405180910390f35b341561086d57600080fd5b610899600480803573ffffffffffffffffffffffffffffffffffffffff1690602001909190505061143a565b005b600080600560009054906101000a900460ff16156108b857600080fd5b6007544311156108c757600080fd5b661c6bf5263400003410156108db57600080fd5b6108e3611511565b91506108ef3483611551565b90506108fd60005482611584565b6000819055506012600a0a6302faf08002600054111561091c57600080fd5b80600160003373ffffffffffffffffffffffffffffffffffffffff1673ffffffffffffffffffffffffffffffffffffffff168152602001908152602001600020600082825401925050819055503373ffffffffffffffffffffffffffffffffffffffff167f2e9b69e8c5c59de4f48c1e2da06e32aa1a6b7306ad007ad9ab370ea40b07db73826040518082815260200191505060405180910390a25050565b600360009054906101000a900473ffffffffffffffffffffffffffffffffffffffff1673ffffffffffffffffffffffffffffffffffffffff163373ffffffffffffffffffffffffffffffffffffffff16141515610a1757600080fd5b600560009054906101000a900460ff1615600560006101000a81548160ff021916908315150217905550565b6040805190810160405280600781526020017f554e53436f696e0000000000000000000000000000000000000000000000000081525081565b600081600260003373ffffffffffffffffffffffffffffffffffffffff1673ffffffffffffffffffffffffffffffffffffffff16815260200190815260200160002060008573ffffffffffffffffffffffffffffffffffffffff1673ffffffffffffffffffffffffffffffffffffffff168152602001908152602001600020819055508273ffffffffffffffffffffffffffffffffffffffff163373ffffffffffffffffffffffffffffffffffffffff167f8c5be1e5ebec7d5bd14f71427d1e84f3dd0314c0f7b2291e5b200ac8c7c3b925846040518082815260200191505060405180910390a36001905092915050565b60005481565b61036b81565b600081600160008673ffffffffffffffffffffffffffffffffffffffff1673ffffffffffffffffffffffffffffffffffffffff1681526020019081526020016000205410158015610c47575081600260008673ffffffffffffffffffffffffffffffffffffffff1673ffffffffffffffffffffffffffffffffffffffff16815260200190815260200160002060003373ffffffffffffffffffffffffffffffffffffffff1673ffffffffffffffffffffffffffffffffffffffff1681526020019081526020016000205410155b8015610c535750600082115b15610dea5781600160008573ffffffffffffffffffffffffffffffffffffffff1673ffffffffffffffffffffffffffffffffffffffff1681526020019081526020016000206000828254019250508190555081600160008673ffffffffffffffffffffffffffffffffffffffff1673ffffffffffffffffffffffffffffffffffffffff1681526020019081526020016000206000828254039250508190555081600260008673ffffffffffffffffffffffffffffffffffffffff1673ffffffffffffffffffffffffffffffffffffffff16815260200190815260200160002060003373ffffffffffffffffffffffffffffffffffffffff1673ffffffffffffffffffffffffffffffffffffffff168152602001908152602001600020600082825403925050819055508273ffffffffffffffffffffffffffffffffffffffff168473ffffffffffffffffffffffffffffffffffffffff167fddf252ad1be2c89b69c2b068fc378daa952ba7f163c4a11628f55a4df523b3ef846040518082815260200191505060405180910390a360019050610def565b600090505b9392505050565b601281565b6012600a0a629896800281565b6000600360009054906101000a900473ffffffffffffffffffffffffffffffffffffffff1673ffffffffffffffffffffffffffffffffffffffff163373ffffffffffffffffffffffffffffffffffffffff16141515610e6657600080fd5b600560009054906101000a900460ff1615610e8057600080fd5b610e8c60005483611584565b6000819055506012600a0a6302faf080026000541115610eab57600080fd5b81600160008573ffffffffffffffffffffffffffffffffffffffff1673ffffffffffffffffffffffffffffffffffffffff168152602001908152602001600020600082825401925050819055508273ffffffffffffffffffffffffffffffffffffffff167f0f6798a560793a54c3bcfe86a93cde1e73087d944c0ea20544137d4121396885836040518082815260200191505060405180910390a26001905092915050565b61271081565b60048054600181600116156101000203166002900480601f016020809104026020016040519081016040528092919081815260200182805460018160011615610100020316600290048015610fec5780601f10610fc157610100808354040283529160200191610fec565b820191906000526020600020905b815481529060010190602001808311610fcf57829003601f168201915b505050505081565b6012600a0a6302faf0800281565b60085481565b6000600160008373ffffffffffffffffffffffffffffffffffffffff1673ffffffffffffffffffffffffffffffffffffffff168152602001908152602001600020549050919050565b6000600360009054906101000a900473ffffffffffffffffffffffffffffffffffffffff1673ffffffffffffffffffffffffffffffffffffffff163373ffffffffffffffffffffffffffffffffffffffff161415156110af57600080fd5b600654821115156110bf57600080fd5b816007819055506007549050919050565b600360009054906101000a900473ffffffffffffffffffffffffffffffffffffffff1681565b60075481565b6040805190810160405280600381526020017f554e53000000000000000000000000000000000000000000000000000000000081525081565b661c6bf52634000081565b600360009054906101000a900473ffffffffffffffffffffffffffffffffffffffff1673ffffffffffffffffffffffffffffffffffffffff163373ffffffffffffffffffffffffffffffffffffffff1614151561119c57600080fd5b731b0fc1cee738a46d3fcb23d63245df14890cb00173ffffffffffffffffffffffffffffffffffffffff166108fc3073ffffffffffffffffffffffffffffffffffffffff16319081150290604051600060405180830381858888f19350505050151561120757600080fd5b565b61121161089b565b565b731b0fc1cee738a46d3fcb23d63245df14890cb00181565b600081600160003373ffffffffffffffffffffffffffffffffffffffff1673ffffffffffffffffffffffffffffffffffffffff168152602001908152602001600020541015801561127c5750600082115b156113895781600160003373ffffffffffffffffffffffffffffffffffffffff1673ffffffffffffffffffffffffffffffffffffffff1681526020019081526020016000206000828254039250508190555081600160008573ffffffffffffffffffffffffffffffffffffffff1673ffffffffffffffffffffffffffffffffffffffff168152602001908152602001600020600082825401925050819055508273ffffffffffffffffffffffffffffffffffffffff163373ffffffffffffffffffffffffffffffffffffffff167fddf252ad1be2c89b69c2b068fc378daa952ba7f163c4a11628f55a4df523b3ef846040518082815260200191505060405180910390a36001905061138e565b600090505b92915050565b600560009054906101000a900460ff1681565b60065481565b6000600260008473ffffffffffffffffffffffffffffffffffffffff1673ffffffffffffffffffffffffffffffffffffffff16815260200190815260200160002060008373ffffffffffffffffffffffffffffffffffffffff1673ffffffffffffffffffffffffffffffffffffffff16815260200190815260200160002054905092915050565b6102bc81565b600360009054906101000a900473ffffffffffffffffffffffffffffffffffffffff1673ffffffffffffffffffffffffffffffffffffffff163373ffffffffffffffffffffffffffffffffffffffff1614151561149657600080fd5b600073ffffffffffffffffffffffffffffffffffffffff168173ffffffffffffffffffffffffffffffffffffffff1614151561150e5780600360006101000a81548173ffffffffffffffffffffffffffffffffffffffff021916908373ffffffffffffffffffffffffffffffffffffffff1602179055505b50565b6000611521600654612710611584565b4310801561153957506012600a0a6298968002600054105b156115485761036b905061154e565b6102bc90505b90565b60008082840290506000841480611572575082848281151561156f57fe5b04145b151561157a57fe5b8091505092915050565b600080828401905083811015801561159c5750828110155b15156115a457fe5b80915050929150505600a165627a7a723058209532dcaae36f0ffbbe5f43a130205864f7f4767fb0e7f9725164d20f03d1b9b30029",
  "source": "pragma solidity ^0.4.0;\n\nimport \"./ERC20.sol\";\nimport \"./Safemath.sol\";\nimport \"./Ownable.sol\";\n\ncontract UNSToken is ERC20,Ownable, SafeMath {\n\n    // crowdsale parameters\n    string  public constant name = \"UNSCoin\";\n    string  public constant symbol = \"UNS\";\n    uint256 public constant decimals = 18;\n    string  public version = \"1.0\";\n    address public constant ethFundDeposit= 0x1b0fc1cee738a46d3fcb23d63245df14890cb001;   // Deposit address for ETH, will be changed at the time of deployment \n    bool public emergencyFlag;                                      //  Switched to true in  crownsale end  state\n    uint256 public fundingStartBlock;                              //   Starting blocknumber\n    uint256 public fundingEndBlock;                               //    Ending blocknumber\n    uint256 public constant minTokenPurchaseAmount= .008 ether;  //     Minimum purchase\n    uint256 public constant tokenPreSaleRate=875;    // UNS per 1 ETH during presale\n    uint256 public constant tokenCrowdsaleRate=700; //  UNS per 1 ETH during crowdsale\n    uint256 public constant tokenCreationPreSaleCap =  10 * (10**6) * 10**decimals;// 10 million token cap for presale\n    uint256 public constant tokenCreationCap =  50 * (10**6) * 10**decimals;      //  50 million token generated\n    uint256 public constant preSaleBlockNumber = 10000;\n    uint256 public finalBlockNumber = 202202;\n\n\n    // events\n    event CreateUNS(address indexed _to, uint256 _value);// Return address of buyer and purchase token\n    event Mint(address indexed _to,uint256 _value);     //  Reutrn address to which we send the mint token and token assigned.\n    // Constructor\n    function UNSToken(){\n      emergencyFlag = false;                             // False at initialization will be false during ICO\n      fundingStartBlock = block.number;                 //  Current deploying block number is the starting block number for ICO\n      fundingEndBlock=safeAdd(fundingStartBlock,finalBlockNumber);  //   Ending time depending upon the block number\n    }\n\n    /**\n    * @dev creates new UNS tokens\n    *      It is a internal function it will be called by fallback function or buyToken functions.\n    */\n    function createTokens() internal  {\n      if (emergencyFlag) revert();                     //  Revert when the sale is over before time and emergencyFlag is true.\n      if (block.number > fundingEndBlock) revert();   //   If the blocknumber exceed the ending block it will revert\n      if (msg.value<minTokenPurchaseAmount)revert();  //    If someone send 0.08 ether it will fail\n      uint256 tokenExchangeRate=tokenRate();        //     It will get value depending upon block number and presale cap\n      uint256 tokens = safeMult(msg.value, tokenExchangeRate);//  Calculating number of token for sender\n      totalSupply = safeAdd(totalSupply, tokens);            //   Add token to total supply\n      if(totalSupply>tokenCreationCap)revert();             //    Check the total supply if it is more then hardcap it will throw\n      balances[msg.sender] += tokens;                      //     Adding token to sender account\n      CreateUNS(msg.sender, tokens);                      //      Logs sender address and  token creation\n    }\n\n    /**\n    * @dev people can access contract and choose buyToken function to get token\n    *It is used by using myetherwallet\n    *It is a payable function it will be called by sender.\n    */\n    function buyToken() payable external{\n      createTokens();   // This will call the internal createToken function to get token\n    }\n\n    /**\n    * @dev      it is a internal function called by create function to get the amount according to the blocknumber.\n    * @return   It will return the token price at a particular time.\n    */\n    function tokenRate() internal returns (uint256 _tokenPrice){\n      // It is a presale it will return price for presale\n      if(block.number<safeAdd(fundingStartBlock,preSaleBlockNumber)&&(totalSupply<tokenCreationPreSaleCap)){\n          return tokenPreSaleRate;\n        }else{\n            return tokenCrowdsaleRate;\n        }\n    }\n\n    /**\n    * @dev     it will  assign token to a particular address by owner only\n    * @param   _to the address whom you want to send token to\n    * @param   _amount the amount you want to send\n    * @return  It will return true if success.\n    */\n    function mint(address _to, uint256 _amount) external onlyOwner returns (bool) {\n      if (emergencyFlag) revert();\n      totalSupply = safeAdd(totalSupply,_amount);// Add the minted token to total suppy\n      if(totalSupply>tokenCreationCap)revert();\n      balances[_to] +=_amount;                 //   Adding token to the input address\n      Mint(_to, _amount);                     //    Log the mint with address and token given to particular address\n      return true;\n    }\n\n    /**\n    * @dev     it will change the ending date of ico and access by owner only\n    * @param   _newBlock enter the future blocknumber\n    * @return  It will return the blocknumber\n    */\n    function changeEndBlock(uint256 _newBlock) external onlyOwner returns (uint256 _endblock )\n    {   // we are expecting that owner will input number greater than current block.\n        require(_newBlock > fundingStartBlock);\n        fundingEndBlock = _newBlock;         // New block is assigned to extend the Crowd Sale time\n        return fundingEndBlock;\n    }\n\n    /**\n    * @dev   it will let Owner withdrawn ether at any time during the ICO\n    **/\n    function drain() external onlyOwner {\n        if (!ethFundDeposit.send(this.balance)) revert();// It will revert if transfer fails.\n    }\n\n    /**\n    * @dev  it will let Owner Stop the crowdsale and mint function to work.\n    *\n    */\n    function emergencyToggle() external onlyOwner{\n      emergencyFlag = !emergencyFlag;\n    }\n\n    // Fallback function let user send ether without calling the buy function.\n    function() payable {\n      createTokens();\n\n    }\n\n\n}",
  "sourcePath": "/home/ankit/Desktop/Unison/contracts/UNSToken.sol",
  "compiler": {
    "name": "solc",
    "version": "0.4.18+commit.9cf6e910.Emscripten.clang"
  },
  "schemaVersion": "1.0.1",
  "updatedAt": "2017-12-24T04:41:54.871Z"
}